:020000040800F2
:100000006029002001010008CD3E00089538000855
:10001000C93E0008C5080008C947000800000000E4
:1000200000000000000000000000000091420008F5
:10003000B90F000800000000553F000845430008C4
:100040001B0100081B0100081B0100081B01000820
:100050001B010008593F00081B0100081B01000894
:100060001B0100081B0100081B0100081B01000800
:10007000A10F0008AD0F00081B0100081B010008BC
:100080001B0100081B0100081B0100081B010008E0
:100090001B0100081B0100081B0100081B010008D0
:1000A0001B0100081B0100081B0100081B010008C0
:1000B0004D43000859430008654300081B01000830
:1000C0001B0100081B0100081B0100085D3F000820
:1000D0001B0100081B0100081B010008E146000885
:1000E0001B0100081B0100081B010008DFF80CD0F1
:1000F00000F0C6FB00480047A16700086029002007
:100100000648804706480047FEE7FEE7FEE7FEE7B1
:10011000FEE7FEE7FEE7FEE7FEE7FEE749430008ED
:10012000ED00000840EA01039B0703D009E008C97D
:10013000121F08C0042AFAD203E011F8013B00F8AC
:10014000013B521EF9D27047F0B480EA0102D40F8D
:100150004200B2EB410F02D20246084611464A0065
:1001600042D0C30DDDB2C1F3C752AD1A202D35DA2E
:10017000C1F3160141F4000204B15242C5F1200658
:1001800002FA06F12A411044B3EBD05F23D0C4B188
:10019000012DA0EBC35009DCF0BC4FF0004202EA95
:1001A000C352DBB200F5000000F0DFBA400000F1FE
:1001B000807000EBC350A0F1807040EAD17049001C
:1001C00009E0490841EAC071A0EBC35000F5000006
:1001D000400800EBC350F0BC00F0BEBA61420122FF
:1001E00002EB4101001BF6E7F0BC704781F00041D3
:1001F000AAE780F00040A7E780EA010210B502F00C
:100200000043400022D04A001FD0010E01EB1261D2
:10021000C0F35600C2F3560240F4000042F400025C
:10022000A0FB022000047F39140400D0401C50EAD7
:10023000124001D44000491EC2B20C0604EBD0109B
:10024000401C4008802A02D003E0002010BD20F0AE
:100250000100002900DA0020184310BD30B480EA04
:10026000010202F0004530F0004221F0004013D0BE
:1002700090B1C30DD40DC2F31601C0F31600E41AF9
:1002800041F4000140F400027D34914201D3641C2A
:1002900000E04900002C02DA30BC002070474FF427
:1002A00000000023914201D3891A034340084FEA1A
:1002B0004101F7D151B1914202D14FF0004105E027
:1002C00002D24FF0010101E06FF0010103EBC450D5
:1002D000284430BC00F040BA2DE9FE4F804681EA48
:1002E0000300C00F0C46009021F0004123F00045B0
:1002F000B8EB0200A94105D24046214690461C4673
:100300000B46024623F00040104347D0270DC7F3A9
:100310000A00C3F30A510290401A019040286BDA98
:10032000C3F3130040F4801B0098924620B10023D1
:10033000D2EB030A63EB0B0B01985946C0F1400264
:10034000504600F0E8F906460D4650465946019AD7
:1003500000F0F0F910EB08006141002487EA115227
:1003600084EAE7731A4340D0009A62B3019A012AE3
:100370004FEA075215DC001B61EB02014FF000420F
:1003800002EA0752CDE90042001C41F580113246D5
:100390002B4600F027FA03B0BDE8F08F4046214617
:1003A000F9E7001B61EB0201001C41F58013001806
:1003B0005B412018A2F5001747EB030140EAD57016
:1003C000B6196D4111E06D084FEA360645EAC07571
:1003D0004FEA0752001B61EB0201001C41F580113E
:1003E00049084FEA30000019514132462B4603B00C
:1003F000BDE8F04F00F0E7B900980122400000236B
:10040000D0EB020263EBE073009821464FEAE07400
:10041000B8EB000061EB0401E9E783F000435BE720
:1004200081F0004158E72DE9FE4F81EA030404F012
:10043000004421F0004100944FF0000B23F00043F2
:1004400050EA01045ED052EA03045BD0C3F30A54BD
:10045000C1F30A552C44A4F2F3340194A0FB0254D6
:10046000C1F3130141F48011C3F3130343F4801368
:1004700001FB024400FB034E840A970A44EA8154BC
:1004800047EA8357A4FB076802958D0A05FB078599
:100490004FEA932C04FB0C542705029D4FEA0658A3
:1004A00047EA1637B5EB08056EEB070C870E920E80
:1004B00047EA811742EA8312A7FB0201B6EB0B0160
:1004C00064EB00042B0D43EA0C335E1844EB1C5024
:1004D000DA465146E7FB0201C5F313044FEA0B333A
:1004E00043EA14534FEA0432019C43EA0603A4F1A1
:1004F0000C040294009CCDE900B400F073F903B041
:10050000BDE8F08F00200146F9E7002801DBC0F1CB
:100510000040002901DBC1F10041814201D80120E6
:10052000704700207047002801DBC0F1004000291F
:1005300001DBC1F10041814201D20120704700205E
:100540007047002801DBC0F10040002901DBC1F148
:100550000041814201D301207047002070470028EC
:1005600001DBC0F10040002901DBC1F10041814203
:1005700001D90120704700207047002801DBC0F13D
:100580000040002901DBC1F10041814201D101207D
:1005900070470020704730B5041E71F1000404DB81
:1005A0004FF00044404264EB0101141E73F100045B
:1005B00005DB1C464FF00043524263EB0403801AF4
:1005C000994101D3012030BD002030BD30B5041E5B
:1005D00071F1000404DB4FF00044404264EB010180
:1005E000141E73F1000405DB1C464FF00043524219
:1005F00063EB0403101A8B4101D3012030BD0020AE
:1006000030BDC10F80EAE0700844CA07962300217C
:1006100000F0ABB896230022114600F0A6B80EB544
:10062000C10F80EAE0700844CA07002140F233435A
:100630008DE80E000A460B4600F0D4F803B000BD6A
:100640000EB540F2334102910021CDE900110A4676
:100650000B4600F0C7F803B000BD00F0004220F0E8
:100660000040C10DC0F3160040F400007F2901DAFC
:1006700000207047962903DCC1F19601C84001E0D3
:1006800096398840002AF4D04042704700F000427A
:1006900030F000400AD0C10D01F56071C0F31600C2
:1006A00042EA0151C2084007114370470020014649
:1006B000704701F0004330B421F0004150EA0102DC
:1006C00006D00A0DA2F56072C1F31301002A02DC04
:1006D00030BC00207047440F44EAC104C100E01858
:1006E00030BC00EBC25000F037B830B50B460146C5
:1006F00000202022012409E021FA02F59D4205D3C1
:1007000003FA02F5491B04FA02F52844151EA2F16A
:100710000102F1DC30BD202A04DB203A00FA02F1AC
:10072000002070479140C2F1200320FA03F31943DF
:1007300090407047202A06DBCB17203A41FA02F09E
:1007400043EAE07306E041FA02F3D040C2F120022E
:1007500091400843194670470029A8BF7047401CC4
:10076000490008BF20F00100704710B4B0FA80FCC7
:1007700000FA0CF050EA010404BF10BC704749B104
:10078000CCF1200421FA04F411FA0CF118BF012174
:1007900021430843A3EB0C01CB1D4FEA00614FEA54
:1007A000102042BF002010BC704700EBC350104423
:1007B0000029A4BF10BC7047401C490008BF20F0AE
:1007C000010010BC704710B5141E73F1000408DA64
:1007D000401C41F1000192185B411A4301D120F005
:1007E000010010BD2DE9F04D92469B4611B1B1FAC2
:1007F00081F202E0B0FA80F220329046FFF78BFFE0
:1008000004460F4640EA0A0041EA0B0153465A46A5
:10081000084313D0114653EA010019D0C8F1400231
:10082000504600F03FF805460E46504659464246AF
:10083000FFF771FF084305D0012004E02046394648
:10084000BDE8F08D0020054346EAE0762C433743AF
:100850000A986305E40AA0EB08000022FD0A44EAB6
:1008600047540A3002D500200146E9E70105101976
:100870006941DDE9084500196941BDE8F04DA2E78D
:10088000064C074D06E0E06840F0010394E80700DD
:1008900098471034AC42F6D3FFF72CFC4490000884
:1008A00064900008202A04DB203A21FA02F000219B
:1008B000704721FA02F3D040C2F120029140084370
:1008C00019467047FEE700002DE9F04F81B040F275
:1008D000E805C2F200054FF000080DF1020085F8AE
:1008E0000080ADF8028003F037F840F26400BDF8F4
:1008F0000290C2F20000021D0C2340F2011C4FF0D6
:10090000000A00200EE000BF297C85F811800EEB64
:100910000A075F44374439445FFA81FA002B02F139
:1009200008026BD0591E29FA01F1C9073ED0697C33
:100930004FF0000E002985F810E004BFA5F810C0A4
:100940004FF0010E32F8041C2E780844711C2970F7
:10095000991E29FA01F1C90731D0697C4FF0000BCB
:10096000002985F810B004BFA5F810C04FF0010BA6
:1009700032F8021C2E780844711C2970D91E29FAFD
:1009800001F1C90724D0697C002600292E7404BF18
:10099000A5F810C0012611882C780844611C297024
:1009A000043B29FA03F1C9071AD1ADE795F810E025
:1009B00085F81180991E29FA01F1C907CDD195F862
:1009C00010B085F81180D91E29FA01F1C907DAD1D2
:1009D0002E7C85F81180043B29FA03F1C90793D0D6
:1009E0006C7C0021002C297404BFA5F810C00121E3
:1009F00054882F7820447C1C2C7088E7BAF1020FB1
:100A000006BFA97801310021A970297881B100B20F
:100A1000FFF7F7FD297804460846FFF7FBFD01467E
:100A20002046FFF71BFC2862286A01B0BDE8F08F62
:100A300043F60040C4F21C6001B0BDE8F08F000036
:100A40002DE9F04F83B0904602884180B0F9043020
:100A5000511AC2680FFA81F90446C380818002EB03
:100A6000090040F2541640F2E802C2F20006B8F162
:100A7000000FC2F2000219D018F1010124D0B8F120
:100A8000010F64D140F2E801029006F13800C2F291
:100A90000001019006F1340006F1300A06F12C0B3A
:100AA000283601F1180700901CE000BF029006F103
:100AB0001000019006F10C00009006F1080A06F102
:100AC000040B02F114070DE0029006F124000190DE
:100AD00006F12000009006F11C0A06F1180B1436EE
:100AE00002F11607E569A9EB0300FFF78AFD01464D
:100AF0002846FFF781FBB7F9001046F82100B7F947
:100B0000000046F267610130C6F2666180FB0112A7
:100B1000511001EBD27101EB8101401A388030682D
:100B2000DBF80010FFF710FBDAF80010FFF70CFB02
:100B300000990968FFF708FB01990968FFF704FBB2
:100B40000021C4F2A001FFF789FB20610298FFF7A2
:100B500058FDD4E90A56824620F00047284631461F
:100B6000FFF70BFD50B138462946FFF7F8FC014668
:100B70004FF07E50002918BF00201DE0384629465E
:100B8000FFF7EDFC10B1002016E000BF38463146FB
:100B9000FFF7BBFC70B928463946FFF727FB07462D
:100BA00028463146FFF722FB01463846FFF756FB41
:100BB00002E000BF4FF07E505146FFF71DFBFFF7EC
:100BC0004CFD0746D4F814A0E0604846FFF719FD35
:100BD000B8F1000F064633D0D4F81090A569384616
:100BE000FFF70FFD01462846FFF706FB0546504676
:100BF0003146FFF701FB2946FFF7A6FA01464846B2
:100C0000FFF7A2FA0646B8F1010F206368D018F189
:100C100001004ED10025C4F2615530462946FFF748
:100C200074FC00286DD00025CCF261553046294671
:100C3000FFF787FC002864D003B0BDE8F08F00BF49
:100C40004846B9F1000F48BFC9F1000000FB09F0A8
:100C5000FFF7D7FC0146D4E90802D4F81090D4F885
:100C600018800292FFF7C8FA834650463146FFF7D4
:100C7000C3FA5946FFF768FA05463846FFF7C1FC44
:100C800001464046FFF7B8FA2946FFF75DFA0146EC
:100C90004846FFF759FA40F2E801C2F20001496DF7
:100CA00005460298FFF7A8FA2946FFF74DFA0646CF
:100CB000206348F20005C4F23B5530462946FFF751
:100CC00024FCF0B148F20005CCF23B5530462946F1
:100CD000FFF737FC002808BF256303B0BDE8F08F9D
:100CE0000025C4F2615530462946FFF70EFC40B19D
:100CF0000025CCF2615530462946FFF722FC00283A
:100D00009AD1256303B0BDE8F08F0000F0B581B043
:100D1000012811D0013056D140F2E806C2F2000697
:100D2000F078012818D140F25410C2F20000C16ED0
:100D30000020C4F2342021E040F2E806C2F20006AE
:100D4000F078012822D140F25410C2F20000C06EA7
:100D50000021C4F234212BE0F078022803D196F967
:100D60000400002802DCF07805282FD140F254104E
:100D7000C2F20000C16E0020C4F24820FFF736FA2C
:100D800040F2C414C2F200041AE000BFF078022856
:100D900003D196F90400002802DCF078052831D14F
:100DA00040F25410C2F20000C06E0021C4F248218B
:100DB000FFF7CAF940F2C411C2F2000101F1340494
:100DC000FFF74BFC208001B0F0BD00BFF078032896
:100DD00036D1706AFFF71EFC0021C4F29631FFF78E
:100DE0003DFA0021C4F2A001FFF706FA0021C4F287
:100DF0003421FFF7A9F940F25411C2F20001C96E83
:100E0000BCE700BFF078032834D1706AFFF702FC1A
:100E10000021C4F29631FFF721FA0021C4F2A001AB
:100E2000FFF7EAF90021C4F23421FFF78DF940F20F
:100E30005411C2F20001C96E024608461146B7E7D6
:100E400040F20407C2F200073D68BC6B2946204609
:100E5000FFF75BFB40BB28460021FFF756FB18BBA2
:100E60000020CBF680700022386001200021C4F2FF
:100E700025422BE040F20407C2F200073D68BC6B3C
:100E800029462046FFF741FB80BB28460021FFF79B
:100E90003CFB58BB0020CBF680700022386001205C
:100EA0000021C4F2254233E07D6820462946FFF741
:100EB0002CFB70B928460021FFF727FB48B9002119
:100EC00000220020CCF2A001CBF680727A60B963D8
:100ED000707040F254117078C2F20001C96E00289F
:100EE0007FF449AF0020C4F2A02047E77D68204688
:100EF0002946FFF70AFB70B928460021FFF705FBDA
:100F000048B9002100220020CCF2A001CBF680726B
:100F10007A60B963707040F254107178C2F20000C8
:100F2000C06E00297FF441AF0021C4F2A0213FE749
:100F300040F2E800C2F2000000210171C17040F2ED
:100F40005413D0E90A1240F2040CC2F20003C2F2B8
:100F5000000C9A659CF809201965016BFF2A196637
:100F60001DD0511C4AB2082A8CF8091017DB9CF8D6
:100F7000081001314AB28CF80810FF21032A8CF8BE
:100F80000910B8BF70470521C17000208CF8080017
:100F9000CCF838000020C4F25230CCF80000704782
:100FA00042F21430C2F2000000F0E0B842F25830D1
:100FB000C2F2000000F0DAB870470000EFF31080D2
:100FC00072B600BFFEE700002DE9F04182B08DF857
:100FD00007109DF80710904619B305469DF80700C5
:100FE000FFF718FB2946FFF707F9FFF736FB42F238
:100FF0009821C2F20001B1F9002048F82200B1F9AD
:10100000000048F689020130C8F6880280FB0223FE
:101010001A18131103EBD272C2EB0212A0EB4200BA
:101020000880D8F80000FFF7ECFA0546002402E03B
:1010300001341E2C18D058F82400FFF7F0FA0646A9
:1010400025F0004021F00047FFF720FB02460B4649
:1010500030463946FFF79FFA0028E9D158F82400B6
:10106000FFF7CFFA0546E3E7284602B0BDE8F08176
:10107000014690F82100022816D10868D1E90FC373
:10108000026822F00E020260026822F00102026091
:10109000012000FA03F2CCF8042081F8210000209E
:1010A000002281F82020704704208863012000225C
:1010B00081F820207047000080B590F821100229A7
:1010C00024D10268116821F00E0111602F211368EC
:1010D000C4F202018A4240F20401C4F2020123F088
:1010E0000103136016DD3023C4F202039A421DD0BF
:1010F0004423C4F202039A421CD05823C4F20203D0
:101100009A421DD14FF4803322E000BF0421816355
:10111000012080BD0823C4F202039A420ED01C2392
:10112000C4F202039A420BD1102311E04FF48073F2
:101130000EE000BF4FF480530AE000BF012307E038
:1011400001F1680C4FF08073624508BF4FF48013C3
:101150000B60012180F82110426B002180F82010E3
:101160000AB190470021084680BD000010B5D0E9C3
:101170000FCE0168DCF800300A6823FA0EF35C0732
:101180002AD512F0040427D00A68920603D40A680C
:1011900022F004020A602F22C4F20202914240F2BD
:1011A0000402C4F202025BDD3023C4F2020399425E
:1011B00072D04423C4F20203994273D05823C4F27C
:1011C0000203994240F07A804FF480231360C16A91
:1011D000002940F098806FE09C0727D512F00204A8
:1011E00024D00A68920606D40A6822F00A020A602D
:1011F000012280F821202F22C4F20202914240F203
:101200000402C4F202023BDD3023C4F2020399421D
:1012100060D04423C4F2020399425FD05823C4F241
:101220000203994260D14FF4003365E01B0743D5B8
:1012300012F0080208BF10BD0A6822F00E020A6010
:10124000012101FA0EF2CCF80420816380F821100C
:10125000016B0022002980F8202054D12CE000BF2F
:101260000823C4F20203994222D01C23C4F20203D1
:10127000994223D140231360C16A002943D11BE066
:101280000823C4F2020399422CD01C23C4F20203A7
:10129000994229D120232FE04FF480631360C16A63
:1012A00089BB09E04FF480431360C16A59BB03E076
:1012B00004231360C16A31BB10BD00BF02F1680492
:1012C0004FF08063A14208BF4FF480031360C16AEE
:1012D000C9B9F1E74FF400730EE000BF4FF40053BB
:1012E0000AE000BF022307E002F168044FF0007338
:1012F000A14208BF4FF400131360816A0022002945
:1013000080F82020D8D0BDE81040084701460028CA
:101310004FF0010008BF70472DE9F043D1F800C03D
:101320004FF6F873CBF6FD734CF6CD426344CCF622
:10133000CC42A3FB02236FF0030707EA93030027C5
:10134000C4F2020701F10C09C1E90F730223D1E9CC
:10135000012E99E87002D1F81C8081F82130DCF868
:10136000003043F6F077BB431A4342EA0E022243B1
:101370002A43324342EA090242EA0802CCF800203A
:1013800000228A6381F8210081F820200020BDE836
:10139000F0437047F0B590F820C0BCF1010F32D097
:1013A0004FF0010E80F820E090F821C0BCF1010F51
:1013B00026D14FF0020C80F821C04FF0000CC0F88D
:1013C00038C0D0E900C4C56AC66BDCF80070102CC8
:1013D00027F00107CCF80070006C0EFA00F0706086
:1013E0000846CCF8043004BF10460A46CCF8080082
:1013F000CCF80C20DCF8000045B140F00E000DE008
:10140000002180F820100220F0BD00BF20F0040071
:10141000CCF80000DCF8000040F00A00CCF8000036
:10142000DCF8000040F00100CCF800000020F0BD26
:101430002DE9F04F82B041F20042C4F201020E6881
:101440000423904208BF0323002E009300F0F6808F
:1014500040F2004C4FF6FF7E0022C4F2010C012442
:10146000C1F2100E4FF0000A4FF0000947E000BF34
:10147000012502F00C040F27A7402BEA070705FA05
:1014800004F43C4343F82640D1F804B040F20C4544
:101490005FEACB23DCF8083054BF23EA080343EAB1
:1014A0000803C4F20105CCF808302B685FEA8B24EE
:1014B00054BF23EA080343EA08032B605FEA8B3436
:1014C000DCF8043054BF23EA080343EA08035FEA68
:1014D000CB34CCF80430DCF800304FF0010454BFBA
:1014E00023EA080343EA0803CCF800300E680AF147
:1014F000010A36FA0AF302F1040200F09F8004FAAE
:101500000AF816EA080FF1D04B68734512DC122B6B
:1015100056D8DFE803F0350B454955555555555517
:10152000555555555555554D510000BFD1F80C90A6
:1015300046E000BF4FF6FF75C1F22105AB420FDC5C
:101540000025C1F21105AB421AD00025C1F21205E7
:10155000AB4215D00025C1F22105AB4210D02FE0DF
:101560000025C1F22205AB420AD00025C1F23105A7
:10157000AB4205D00025C1F23205AB4220D100BFFD
:101580008B684BB1012B14BFC0F81480C0F81080D9
:101590004FF0080914E000BF4FF0040910E000BF4D
:1015A000CB6803F108090BE04FF0000908E000BF29
:1015B000CB6803F1040903E0CB6803F10C0900BF19
:1015C00013460546BAF1080F24BF203B04352E68A8
:1015D0000F279F40BE4309FA03F333432B60CB79B7
:1015E000DB067FF583AF41F21804C4F202042368DE
:1015F0004FEA9A0643F001032360236840F6000493
:1016000003F001030193019BACF57E7353F826B000
:10161000C4F20104A0420FD040F60044C4F2010419
:10162000A0423FF425AF41F20004C4F20104009D42
:10163000A04208BF02251CE700251AE702B0BDE85A
:10164000F08F00008068084018BF0120704700003C
:10165000002A08BF090401617047000042F25C5093
:10166000C2F200000068704740F2400042F25C5154
:10167000C2F20000C2F2000100780A68104408605B
:101680007047000080B542F20000C4F20200016819
:1016900041F010010160032000F092F80F2000F0EB
:1016A00005F800F027F8002080BD000070B540F27A
:1016B0004006C2F2000640F250013278C2F2000148
:1016C0004FF47A730968B3FBF2F20446B1FBF2F10E
:1016D000084600F0DDFD0F2C4FF0010508D838B9A1
:1016E0004FF0FF3021460022002500F03DF87460E5
:1016F000284670BD80B582B041F21800C4F20200E5
:101700000168002241F001010160016801F001015E
:1017100001910199416841F0805141604068002188
:1017200000F0805000900098052000F01DF8052082
:1017300000F00AF80420C4F201000168022262F3FA
:101740001A61016002B080BD002848BF704700F0F8
:101750001F01012202FA01F14EF200124009CEF2FD
:10176000000242F82010704710B54EF60C5CCEF225
:10177000000CDCF80030C3F3022E8EF00704042CBA
:1017800028BF0424BEF103034FF0FF3E0EFA04F419
:1017900038BF0023A14399400EFA03F39A43114343
:1017A00000F00F02043A624409010C3200F1604378
:1017B000B0F1FF3FC8BF03F56442117010BD0000D7
:1017C0004EF60C51CEF200010A684FF6FF031A40A4
:1017D00060F30A2242F0806040F0FD7008607047BC
:1017E0002DE9F04381B0002800F0858042F2000826
:1017F000C4F202080446D8F800000D4600F00700C5
:1018000088420CD2D8F8000020F007002843C8F81E
:101810000000D8F8000000F00700A8426BD1206853
:1018200041F204098107C4F2020917D5410705D521
:10183000D9F8001041F4E061C9F80010010705D59E
:10184000D9F8001041F46051C9F80010D9F800101F
:10185000A26821F0F0011143C9F80010C00741D17E
:10186000D8F8000000F00700A8420CD9D8F8000012
:1018700020F007002843C8F80000D8F8000000F066
:101880000700A84237D12068410707D5D9F80010D2
:10189000E26821F4E0611143C9F80010000708D59F
:1018A000D9F80000216920F4605040EAC100C9F86D
:1018B0000000D9F8002002F00C00082841F20020B6
:1018C000C0F27A0050D149F23403C2F38341C0F62A
:1018D0000003595CD2033BD440F60010C0F23D0037
:1018E000484341E0606802280AD001282AD159F80B
:1018F000041C890308D4012001B0BDE8F08300BFB7
:1019000059F8041C8901F6D5D9F8001021F003011B
:101910000843C9F80000FFF7A1FE064641F28837E8
:10192000D9F80000616800F00C00B0EB810F97D08F
:10193000FFF794FE801BB842F2D9032001B0BDE846
:10194000F08300BF59F8041C8907D4D5DCE700BF39
:10195000D9F8002046F6EA73C2F34042C0F600030D
:101960009A5C4843B0FBF2F0D9F8001046F6D27208
:10197000C1F30311C0F60002515C40F2500220FA9C
:1019800001F140F24400C2F200000068C2F200021D
:101990001160FFF78BFE002001B0BDE8F08300006E
:1019A00040F2500041F20401C2F20000C4F2020110
:1019B0000068096846F6E272C1F30221C0F600022F
:1019C000515CC8407047000040F2500041F20401F1
:1019D000C2F20000C4F202010068096846F6E27231
:1019E000C1F3C221C0F60002515CC840704700003C
:1019F0002DE9F04182B0002868D00446007841F219
:101A00000006C007C4F2020625D0706800F00C0082
:101A100004281BD0706800F00C00082802D1706800
:101A2000C00313D46068002800F06881B0F5A02FCF
:101A300000F07C81B0F5803F00F07C81306820F4BC
:101A400080303060306820F4802076E13068800398
:101A500001D56068D0B32078800718D5706810F081
:101A60000C0F07D0706800F00C0008286ED1706869
:101A7000C0036BD43068800702D52069012825D1C6
:101A80003068616920F0F80040EAC10030602078D9
:101A900000071FD42078400732D4E56995B17068FB
:101AA00000F00C00082840F08F80012D0ED07068E7
:101AB000216A00F480328A4208D1616A00F4701011
:101AC000884203D1002002B0BDE8F081012002B0BD
:101AD000BDE8F081A069002862D00020C4F2422055
:101AE0000121C0F88014FFF7B9FD0546706A800730
:101AF00000F18C80FFF7B2FD401B0228F6D92AE1E5
:101B0000F06910F0805808D1F06940F08050F06121
:101B1000F06900F080500090009847F20007C4F28E
:101B200000073868C00529D4386840F480703860F0
:101B3000FFF794FD054600BF3868C0051ED4FFF7C7
:101B40008DFD401B6428F7D905E100BF20690028FE
:101B500040F20000C4F2422000F0828001210160C6
:101B6000FFF77CFD054600BF306880073FF588AF72
:101B7000FFF774FD401B0228F6D9ECE0E06800286E
:101B800000F08080052800F09780012800F0988000
:101B9000306A20F001003062306A20F0040092E0E8
:101BA0000020C4F242200021C0F88014FFF756FD47
:101BB000054600BF706A80077FF56CAFFFF74EFDEA
:101BC000401B0228F6D9C6E00027C4F242270020B5
:101BD0003866FFF743FD022D05460BD130688001C2
:101BE00040F1BE80FFF73AFD401B02284FF0030092
:101BF000F4D968E7306880017FF564AFFFF72EFD08
:101C0000401B02284FF00300F4D95CE740F250007B
:101C1000C2F20000006844F6D351C1F26201A0FB99
:101C20000101480A019000BF00BF0198411E002831
:101C300001913FF42FAF00BF0198411E0028019190
:101C40003FF428AF00BF0198411E002801913FF4E6
:101C500021AF00BF0198411E00280191E4D119E78E
:101C600000210160FFF7FAFC054600BF30688007DD
:101C70007FF50DAFFFF7F2FC401B02284FF0030089
:101C8000F4D920E7306A20F001003062306A20F099
:101C900004003062FFF7E2FC054641F2883700BFDE
:101CA000306A800720D5FFF7D9FC401BB8424FF0BF
:101CB0000300F5D907E700BF306A40F00400306246
:101CC000306A40F001003062FFF7C8FC054641F27F
:101CD000883700BF306A800706D4FFF7BFFC401B7F
:101CE000B842F7D937E000BFB8F1000F7FF4D5AEA6
:101CF000F06920F08050F061CFE600BF306820F43A
:101D000080303060306820F480203060FFF7A6FC1F
:101D1000054600BF306880037FF59DAEFFF79EFC4F
:101D2000401B64284FF00300F4D9CCE6306840F43F
:101D300080203060306840F480303060FFF78EFCE7
:101D4000054600BF306880033FF585AEFFF786FC8F
:101D5000401B6428F6D9032002B0BDE8F08100BF23
:101D6000206AB0F5803F05D17168A26821F4003186
:101D7000114371607168626A21F474111043084361
:101D8000706001203866FFF769FC04463068800106
:101D90003FF598AEFFF762FC001B02284FF00300EE
:101DA000F4D990E670470000B0B584B004460068EE
:101DB0004168826812F0400305D112F0010518BF96
:101DC00011F0400512D1950708D511F0800505D016
:101DD000616C204604B0BDE8B040084712F0600FC7
:101DE00018BF11F0200507D104B0B0BD216C20460A
:101DF00004B0BDE8B0400847BBB194F85130032BA4
:101E000008D100210291C168029180680290029875
:101E100004B0B0BD636D43F0040363650023039316
:101E2000C368039383680393039B12F020020CD0D2
:101E3000626D42F0010262650022019282680192A5
:101E4000026822F040020260019A626D002ACBD043
:101E50004268890722F0E00242604FF0010284F8F4
:101E600051201FD0416843F6697521F0030141609C
:101E7000E06CC0F6000538B14563FFF71DF918B1F5
:101E8000606D40F040006065A06C0028ACD04563F8
:101E9000FFF712F90028A7D0606D40F040006065A0
:101EA00004B0B0BD204604B0BDE8B040FFF77ABF33
:101EB00070B538B10446406A30B10020206104F1A9
:101EC000140007E0012070BD6068B0F5827F03D088
:101ED00004F11C00002101600026A66294F8510064
:101EE00020B9204684F8506000F038F8022084F8C9
:101EF000510094E8071001F48271036802F404426F
:101F000023F040030360236911440CF40062114480
:101F100003F002026369114403F00102A369E56959
:101F2000114403F40072114405F03802256A11448B
:101F300005F08002A56A114305F4005211430160C7
:101F4000042101EA13414160C16921F40061C161CA
:101F50000120666584F85100304670BD2DE9F041DE
:101F600086B040F600050446C4F20105006805F598
:101F7000205100278842049702D006B0BDE8F081C6
:101F800041F21800C4F20200016802AE41F480512F
:101F90000160016840F21C0801F48051019101992F
:101FA0000168C4F2020841F0040101600068314692
:101FB00000F0040001900198A020029002200390FC
:101FC000032005902846FFF733FA4020CDE90207A9
:101FD000284631460497FFF72BFA42F21435C2F235
:101FE000000580262846C5E90087C5E90276C5E9CF
:101FF0000477C5E90677FFF789F9002818BFFEF7CF
:10200000DDFFE5646C6242F2583508F11400C2F25B
:1020100000051021002285E847002846C5E9042272
:10202000C5E90622FFF772F9002818BFFEF7C6FFC0
:10203000232000210022A5646C62FFF795FB23207A
:10204000FFF782FB06B0BDE8F0810000704700009A
:102050007047000070B590F851500446012D07D12B
:1020600000294FF0010018BF002A0DD170BD00BF3C
:102070006068B0F5827F0ED1A06800284FF00200A2
:1020800008BF042DF2D1EBE7002B08BF70BD94F818
:102090005000012802D1022070BD00BF012084F849
:1020A000500094F85100002604281CBF052084F835
:1020B000510066652163A386E386A263A387E38755
:1020C000C4E9106694F8511043F6957C43F6A57365
:1020D000C0F6000CC0F600032568E06C042908BFB8
:1020E000634643F6AD7C44F2ED01C0F6000CC0F649
:1020F000000108BF614643F6757C00F1280EC0F66A
:10210000000C8EE80A104663E38F05F10C01FFF71F
:1021100041F938B1606D40F010006065012084F82D
:10212000506070BD2268A06C516841F0010151609F
:10213000C0E90A66C0E90C66216BE38E0C32FFF73A
:1021400029F948B1606D40F010006065002084F806
:102150005000012070BD00BF21680868400603D40C
:10216000086840F040000860002084F850004A6889
:1021700042F020024A604A6842F002024A6070BDA2
:10218000B0B5044690F8510001280BD100294FF05A
:10219000010018BF002A01D1B0BD00BF94F8500063
:1021A000012801D10220B0BD012084F85000032095
:1021B000002384F8510063652163A286E286A3634D
:1021C000C4E91033A387E387A0682268B0F5004F05
:1021D00007D1106820F040001060106840F4804083
:1021E0001060A06C43F69D7C44F2590E43F6757561
:1021F000C0F6000CC0F6000EC0F60005C0E90AECFF
:10220000C0E90C53E38E0C32FFF7C4F840B1606DA7
:1022100040F010006065002084F850000120B0BD3F
:1022200021680868400603D4086840F04000086050
:10223000002084F850004A6842F020024A604A6850
:1022400042F002024A60B0BD006843F20001C4F2ED
:102250000101884218BF704740F28000C2F20000BE
:10226000012101707047000070470000006843F2D0
:102270000001C4F20101884218BF704740F280009B
:10228000C2F2000001210170704700007047000099
:10229000411E0020B0EB116F1CBF012070474EF2B1
:1022A0001002CEF2000251604EF62351CEF2000130
:1022B000F0230B7007219060116070477047000099
:1022C00070470000B0B590F83C20012A04BF0220FE
:1022D000B0BD01F108053CCDD1E900CE23F47C531B
:1022E00022F470521A432EF4F0431A432CF4E043C4
:1022F0001A4324F4C0431A432A43C96922F4804292
:10230000036811435964002180F83C100846B0BDB1
:1023100010B590F83C20012A4FF0020233D080F82B
:102320003D200268D2F804E0D2F808C00C682EF014
:102330007003234340F2FF74C4F20004A2425360CE
:102340000ADCB2F1804F13D040F20043C4F2000324
:102350009A420DD011E000BF42F60043C4F20103DF
:102360009A4205D040F60003C4F200039A4204D119
:1023700049682CF08003194391600121002280F804
:102380003D1080F83C20104610BD0000002804BF1E
:102390000120704710B5044690F83D0028B9002090
:1023A00084F83C00204600F06FF8022084F83D00DD
:1023B000206840F2FF730268C4F2000342F6004C4A
:1023C0009842C4F2010C15DCB0F1804F1AD040F2F3
:1023D0000041C4F20001884214D0984218DCB0F1E8
:1023E000804F1DD040F20041C4F20001884217D056
:1023F0001AE000BF604505D040F60001C4F20001BC
:102400008842EAD1A16822F070020A439842E6DDD0
:10241000604505D040F60001C4F20001884203D1B6
:10242000216922F440720A43A36922F08001D4F8A2
:1024300004E0E268194360450160C262C0F828E028
:1024400002D16169CCF83010012141610269D207E3
:1024500003D0026922F001020261002084F84610D4
:1024600084F83E1084F83F1084F8401084F841103E
:1024700084F8421084F8431084F8441084F845101E
:1024800084F83D1010BD000080B582B00068B0F146
:10249000804F15D042F60041C4F2010188420CD1B0
:1024A00041F21800C4F20200016841F400610160C9
:1024B000006800F400600190019802B080BD00BF88
:1024C00041F21800C4F202004168002241F001010B
:1024D00041604068012100F00100009000981C203C
:1024E000FFF742F91C2002B0BDE88040FFF72CB98D
:1024F00090F83D1001291CBF01207047022180F88F
:102500003D10006840F2FF72C168C4F200029042C0
:1025100041F00101C16009DCB0F1804F12D040F2FE
:102520000041C4F2000188420CD012E042F60041A2
:10253000C4F20101884205D040F60001C4F2000156
:10254000884206D1816801F00701062904BF0020F6
:102550007047016841F001010160002070470000F0
:1025600080B590F83C20012A4FF0020200F0C280B2
:1025700080F83D20D0F800C04FF67772DCF80830C4
:1025800023EA0202CCF808200B684F2B28DC1F2B13
:1025900044DD202B45D0302B43D0402B40F0AC8085
:1025A000D1F804E0C968DCF82030DCF8202022F003
:1025B0000102CCF82020DCF8182022F0F00242EAD8
:1025C000011123F00A0242EA0E02CCF81810CCF8EE
:1025D0002020DCF8081041F0470121F0300180E0B4
:1025E0006F2B27DDB3F5005F48D0B3F5805F7AD05D
:1025F000702B40F08180D1E901E3C968DCF8082044
:1026000043EA0E0322F47F4243EA01211143CCF84E
:102610000810DCF8081041F0770162E00BB1102BD4
:102620006AD1DCF8081021F07001194341F007016C
:1026300057E000BF502B35D0602B5DD1D1F804E0BE
:10264000C968DCF82030DCF8202022F01002CCF839
:102650002020DCF8182022F4704242EA013123F0F5
:10266000A00242EA0E12CCF81810CCF82020DCF8B8
:10267000081041F0670121F0100132E0D1E901E3D7
:10268000C968DCF8082043EA0E0322F47F4243EADB
:1026900001211143CCF80810DCF8081041F4804106
:1026A0001FE000BFD1F804E0C968DCF82030DCF896
:1026B000202022F00102CCF82020DCF8182022F0A3
:1026C000F00242EA011123F00A0242EA0E02CCF8BB
:1026D0001810CCF82020DCF8081041F0570121F048
:1026E0002001CCF808100022012180F83D100021C3
:1026F00080F83C10104680BD0122F5E7002804BF99
:10270000012070472DE9F04F81B0044690F83D005C
:102710000D4628B9002084F83C00204600F09AF8C5
:10272000022084F83D00206844F20702816840F2EC
:10273000FF73914381600268C4F2000342F6004CCB
:102740009842C4F2010C15DCB0F1804F1AD040F26F
:102750000041C4F20001884214D0984218DCB0F164
:10276000804F1DD040F20041C4F20001884217D0D2
:102770001AE000BF604505D040F60001C4F2000138
:102780008842EAD1A16822F070020A439842E6DD4D
:10279000604505D040F60001C4F20001884203D133
:1027A000216922F440720A43A36922F08001D4F81F
:1027B00004E0E268194360450160C262C0F828E0A5
:1027C00002D16169CCF830104FF0010EC0F814E06E
:1027D0000269D20703D0026922F001020261826815
:1027E0008369D0F820C0D5E90018D5E9027B41EA19
:1027F000020AAA694FF6FF7923EA090347EA02228F
:102800004FF6FC47BA43D5E9077643EA0B0329693B
:102810001A4342EA072242EA01112CF022026B69B4
:1028200042EA080241EA063142EA0312C0F808A06F
:102830008161026284F846E084F83EE084F83FE07B
:1028400084F842E084F843E084F83DE0002001B0E1
:10285000BDE8F08F10B586B0006840F60002C4F203
:102860000002002190420591CDE90311029137D079
:1028700040F20041C4F2000188425BD141F21800ED
:10288000C4F20200416841F002014160416801F078
:10289000020101910199016841F00801016000689D
:1028A00002A900F008000190019830200290002059
:1028B000CDE9030040F60040C4F20100FEF7B8FD88
:1028C0000420C4F2010001684FF2FF32CFF6FF028C
:1028D000114041F0E06141F4006101601D2421E0FC
:1028E00041F21800C4F20200426842F00402426061
:1028F000426802F004020192019A026842F0080262
:102900000260006800F0080001900198C020CDE945
:10291000020140F600400491C4F2010002A9FEF752
:1029200087FD1E24204600210022FEF71DFF2046C1
:10293000FEF70AFF06B010BD80B590F83E2090F873
:102940003F3090F842E090F843C004290AD0B9B96A
:10295000012A4FF0010208BFBEF1010F34D010462A
:1029600080BD00BF012B4FF0010208BFBCF1010F79
:10297000F5D1022180F83F1080F8431000681EE076
:10298000012A4FF0010208BF012BE8D1BEF1010F6F
:10299000E5D1BCF1010FE2D1022280F83E2080F89F
:1029A0003F2080F8422080F8432091B10068016AFE
:1029B00021F001010162016A41F00101016210216F
:1029C0006FF0100209E000BF022180F83E1080F88D
:1029D0004210006801216FF00102036A1A4002628E
:1029E000026A114301620168002241F001010160A5
:1029F000104680BD7047000070B504460068C56889
:102A00000669B10716D515F0020113D06FF0020167
:102A10000161012121778069800703D02046FFF7FB
:102A2000E9FF05E0204600F08FF8204600F010FA9C
:102A300000202077700719D515F0040016D0206803
:102A40006FF00401016102212177806910F4407F59
:102A500004D02046FFF7CEFF06E000BF204600F07E
:102A600073F8204600F0F4F900202077300717D5DE
:102A700015F0080014D020686FF0080101610421EE
:102A80002177C069800703D02046FFF7B3FF05E038
:102A9000204600F059F8204600F0DAF900202077AF
:102AA000F00619D515F0100016D020686FF010014F
:102AB000016108212177C06910F4407F04D02046CD
:102AC000FFF798FF06E000BF204600F03DF82046E3
:102AD00000F0BEF900202077F00718BF15F00100C4
:102AE00002D1300609D412E020686FF001010161C3
:102AF000204600F01FFA300609D515F0800006D0F8
:102B000020686FF0800101612046FFF7D7FB700657
:102B100009D515F0400006D020686FF04001016132
:102B2000204600F091FAB00658BF70BD15F02000A5
:102B300008D021686FF0200220460A61BDE870408D
:102B4000FFF7BEBB70BD0000704700002DE9F043E9
:102B500090F83C30012B04BF0220BDE8F0834FEA1F
:102B6000B202032A3CD8DFE802F003437FB900BF7A
:102B7000036842F600461D6A1A6AC4F2010622F092
:102B800001021A621A465C6852F818CFB3428E6886
:102B9000D1F800E025F0020545EA06050CD1CE6823
:102BA000D1E9057824F4407425F00C0526F00406DC
:102BB0003C43354344EA08042CF0730747EA0E0708
:102BC0005C609F614F6809695F631D629F6947F0A0
:102BD00008079F619F6927F004079F61AEE000BF6F
:102BE0000121002280F83C200846BDE8F08300BFA8
:102BF000036842F600461D6A1A6AC4F2010622F012
:102C000010021A621A46D3F804C052F8184FB342A1
:102C10008E68D1F800E025F0200545EA06150FD1B1
:102C2000CE68D1E905986FF0400707EA06162CF444
:102C3000406725F0C00547EA8907354347EA880C15
:102C400024F4E64444EA0E27C3F804C09F614F68A9
:102C500009699F631D629F6947F400679F619F69CF
:102C600027F480679F6168E0036842F600461D6AAA
:102C70001A6AC4F2010622F480721A621A46D3F864
:102C800004C052F81CEFB3428E680C6825F400753E
:102C900045EA06250FD1CE68D1E90598360240F203
:102CA000FF47BE432CF4405725F4406547EA091717
:102CB000354347EA081C2EF073072743C3F804C0C6
:102CC000DF614F680969DF631D62DF6947F008074C
:102CD000DF61DF6927F00407DF612FE0036842F658
:102CE0000047D3F820C01A6AC4F2010722F48052C8
:102CF0001A621A465C6852F81C5FD1F800E08E68D0
:102D0000BB4204D14F6924F4804444EA87142CF474
:102D1000005747EA063725F4E64646EA0E265C6089
:102D2000DE614E6809691E641F62DF6947F400674F
:102D3000DF61DF6927F48067DF61090213681943E7
:102D400011600021002280F83C200846BDE8F08395
:102D5000002804BF0120704710B5044690F83D00DC
:102D600028B9002084F83C00204600F06FF80220CB
:102D700084F83D00206840F2FF730268C4F200034B
:102D800042F6004C9842C4F2010C15DCB0F1804FC1
:102D90001AD040F20041C4F20001884214D0984297
:102DA00018DCB0F1804F1DD040F20041C4F20001A8
:102DB000884217D01AE000BF604505D040F60001F8
:102DC000C4F200018842EAD1A16822F070020A43ED
:102DD0009842E6DD604505D040F60001C4F20001EE
:102DE000884203D1216922F440720A43A36922F088
:102DF0008001D4F804E0E268194360450160C262D2
:102E0000C0F828E002D16169CCF83010012141619D
:102E10000269D20703D0026922F001020261002098
:102E200084F8461084F83E1084F83F1084F840106F
:102E300084F8411084F8421084F8431084F8441058
:102E400084F8451084F83D1010BD00007047000064
:102E50007047000041B1082910D0042914BF00F1C7
:102E6000410200F13F020BE090F83E20012A1CBF16
:102E700001207047022280F83E2013E000F140025A
:102E80001278012A1CBF012070470222082907D0AE
:102E9000042914BF80F8412080F83F2002E000BFE1
:102EA00080F84020006801F01F010122036A8A4077
:102EB00023EA02010162036A42F64441C4F20101BD
:102EC0001A43A1F14403984202620FD040F2FF710D
:102ED000C4F20001884213DCB0F1804F1CD040F2F4
:102EE0000041C4F20001884216D01CE00A6842F496
:102EF00000420A6040F2FF71C4F200018842EBDD3B
:102F000042F60041C4F20101884205D040F60001BA
:102F1000C4F20001884206D1816801F00701062948
:102F200004BF00207047016841F0010101600020EA
:102F300070470000F0B581B042F23C41C2F200019E
:102F4000884201D001B0F0BD42F2CC40C2F2000094
:102F5000006842F28442416A40F2E806C2F200028E
:102F600009B2C2F200061268F164516A002409B283
:102F70004942316544625462F069B6F9121006F1B3
:102F8000580242F82100B6F9120046F2676101309A
:102F9000C6F2666180FB0112510801EBD27101EBB0
:102FA0008101401A7082B06DF16DFDF7CDF8316E80
:102FB000FDF7CAF8716EFDF7C7F8B16EFDF7C4F8FA
:102FC0000021C4F2A001FDF749F9706501F08EFB04
:102FD00001F0CEF94FF0FF30FDF798FE0120FDF72C
:102FE00095FE01F057F9B6F90C000022012842F6CF
:102FF000344740F60005B8BF0122002848BF4042D0
:10300000C4F20107C4F20105386005F580604FF491
:103010000041FEF71DFBB6F90E004FF48061002859
:10302000C8BF012448BF4042786028462246FEF7C8
:103030000FFBB06C0130B064B06CB0F57A7F84BF28
:103040000120B06401B0F0BD70470000704700007F
:1030500070470000B0B582B0044600680168C368DC
:10306000426901F02F05202D03F0200506D12DB176
:10307000204602B0BDE8B04001F0B2BA5FEA017C80
:103080001EBF02F0010E03F4907212EB0E0255D136
:10309000226B012A05D111F0100218BF13F01002A3
:1030A00036D10A0622D513F080021FD094F84110C1
:1030B000212941D1A168B1F5805F03D1216900299F
:1030C00000F07282216A4A1C226209784160E18C18
:1030D00001390A04E1842FD1C16821F08001C16067
:1030E000C16841F04001C16002B0B0BD490623D5BE
:1030F00013F0400120D0C16821F04001C1602021BF
:10310000204684F8411002B0BDE8B04000F0C0BBDA
:103110000021019101680191416801910199416982
:10312000490600F18F80A18DE28DE38D002B1CBF3D
:10313000891A5FEA01420CD102B0B0BDCA0718BFBC
:1031400013F4807240F038814A0700F13B8140E17E
:10315000206850E8030F226820F4907042E80303CF
:10316000DBB1206850E8030F226820F4907042E839
:10317000030393B1206850E8030F226820F4907095
:1031800042E803034BB1206850E8030F226820F4A3
:10319000907042E80303002BDAD1206850E8050F55
:1031A000226820F0010042E80503DBB1206850E806
:1031B000050F226820F0010042E8050393B1206862
:1031C00050E8050F226820F0010042E805034BB1EA
:1031D000206850E8050F226820F0010042E805034E
:1031E000002BDAD1202084F84200002020632068E0
:1031F00050E8030F226820F0100042E80303DBB11F
:10320000206850E8030F226820F0100042E8030312
:1032100093B1206850E8030F226820F0100042E8C4
:1032200003034BB1206850E8030F226820F0100020
:1032300042E80303002BDAD1022289B220466263FE
:10324000B4E000BFE16B0A68526893B2002B3FF410
:1032500073AFA58DAB42BFF46FAFE28589692029BA
:1032600000F09D8050E8030F216820F4807041E851
:103270000302EAB1206850E8030F216820F480704F
:1032800041E80302A2B1206850E8030F216820F44E
:10329000807041E803025AB1206850E8030F2168AA
:1032A00020F4807041E8030212B12068DAE700BF21
:1032B000206850E8050F216820F0010041E8050270
:1032C000DAB1206850E8050F216820F0010041E8DC
:1032D000050292B1206850E8050F216820F0010036
:1032E00041E805024AB1206850E8050F216820F046
:1032F000010041E80502002ADAD1206850E8050FF4
:10330000216820F0400041E80502DAB1206850E869
:10331000050F216820F0400041E8050292B12068C5
:1033200050E8050F216820F0400041E805024AB14D
:10333000206850E8050F216820F0400041E80502B0
:10334000002ADAD1202084F842000020206320687F
:1033500050E8030F216820F0100041E80302DAB1C1
:10336000206850E8030F216820F0100041E80302B4
:1033700092B1206850E8030F216820F0100041E866
:1033800003024AB1206850E8030F216820F01000C2
:1033900041E80302002ADAD1E06BFDF769FE022062
:1033A0006063A08DE18D401A81B2204602B0BDE875
:1033B000B040FFF74BBE00BF626C42F00102626496
:1033C0004A0706D5BEF1000F03D0626C42F002023C
:1033D00062648A0706D5BEF1000F03D0626C42F02A
:1033E00004026264BCF1000F06D555EA0E0203D058
:1033F000626C42F008026264626C002A3FF49CAE88
:1034000011F0200118BF002D03D0204601F0E8F88C
:1034100020684169626C01F0400102F008028918DD
:1034200000F0A28050E8030F216820F4907041E87A
:103430000302C2B3206850E8030F216820F49070A3
:1034400041E803027AB3206850E8030F216820F4B2
:10345000907041E8030232B3206850E8030F2168FE
:1034600020F4907041E80302EAB12068DAE700BF77
:10347000206850E8050F216820F0010041E80502AE
:10348000DAB1206850E8050F216820F0010041E81A
:10349000050292B1206850E8050F216820F0010074
:1034A00041E805024AB1206850E8050F216820F084
:1034B000010041E80502002ADAD1206B012824D15D
:1034C000206850E8030F216820F0100041E8030253
:1034D000DAB1206850E8030F216820F0100041E8BD
:1034E000030292B1206850E8030F216820F0100019
:1034F00041E803024AB1206850E8030F216820F038
:10350000100041E80302002ADAD1202084F84200AA
:10351000002020632068416949063FD550E8050F27
:10352000216820F0400041E805022AB3206850E8F5
:10353000050F216820F0400041E80502E2B1206853
:1035400050E8050F216820F0400041E805029AB1DB
:10355000206850E8050F216820F0400041E805028E
:1035600052B12068DAE700BF2046FFF771FD002066
:10357000606402B0B0BD00BFE06B78B144F2D551D9
:10358000C0F600014163FDF797FD00283FF4D4AD7C
:10359000E06B416B02B0BDE8B0400847204602B086
:1035A000BDE8B040FFF754BD216A31F8022B6FF33C
:1035B0005F22426021628AE5002804BF0120704733
:1035C00010B5044690F8410028B9002084F8400066
:1035D000204600F061F8242084F841002068D4E9F6
:1035E0000212C36823F40053C360036923F44053F9
:1035F0001A430261D4E904231143C268194341F21A
:103600000C639A431143C1604169A26921F440717E
:10361000114343F60002C4F201029042416103D01B
:10362000FEF7BEF902E000BFFEF7CEF9626819218D
:1036300048439100B0FBF1F048F21F51C5F2EB1185
:10364000A0FB01235A096FF0630302FB030032233E
:1036500003EB0010A0FB0101F02303EA51132068E3
:1036600003EB0212C1F3431111448160016921F49B
:1036700090410161416921F02A014161C16841F431
:103680000051C16000202021606484F8411084F85A
:103690004210606310BD000070B586B040F6004473
:1036A000C4F201040068A4F544410026884204964F
:1036B00002D006B070BD00BF41F21800C4F2020093
:1036C000416802AD41F480214160416801F48021EC
:1036D00001910199016841F00801016000682946E3
:1036E00000F00800019001984FF4806002900220E1
:1036F0000390032005902046FDF79AFE4FF40060EA
:10370000CDE90206204629460496FDF791FE2720C2
:1037100000210022FEF728F82720FEF715F806B052
:1037200070BD0000704700002DE9F041044690F89C
:10373000410020281CBF0220BDE8F0810F4600296F
:103740004FF0010000F082801646002A08BFBDE855
:10375000F0814FF0000821201D46C4F8448084F811
:103760004100FDF77BFFA684E684A1680646B1F51B
:10377000805F05D12069002814BF3846B846074647
:10378000E08CC8B1681C19D0002D61D1216807E018
:1037900017F8010B4860E08C0138E084E08C68B3D6
:1037A000086800064CD5002FF2D138F8020B00272C
:1037B0006FF35F20EEE700BF21681FE0216802E0A1
:1037C0000868000609D40868000606D408680006E0
:1037D0005CBF08685FEA0060F2D51FB117F8010B03
:1037E00005E000BF38F8020B00276FF35F20486048
:1037F000E08C0138E084E08C0028E4D108684006C1
:103800001CD4EDB1681C0FD10868400616D40868B6
:10381000400613D40868400610D4086840064FF0EC
:103820000000F1D50FE000BFFDF718FF801BA84294
:1038300008D82068C16800684006F5D5002002E07D
:10384000FDF70CFF0320202184F84110BDE8F08132
:10385000216800BF0868000608D4FDF7FFFE801B42
:10386000A842EFD82168C868F4E700BF17B117F87D
:10387000010B04E038F8020B00276FF35F2048606B
:10388000E08C0138E084E08C0028E3D1B6E700004A
:1038900070470000FEE70000B0B540F2E80440F2D7
:1038A0000400C2F200040025C2F200002571E57098
:1038B0004572E06B4EF2000120F00040C4F2B841C6
:1038C000FCF723FEB0B940F25410C2F200004FF0F2
:1038D0007C5101654CF6CD41CBF6CC618565016626
:1038E000E06B0021FCF73BFED0B10020C4F2FA30BF
:1038F0001EE000BFE06B48F2000120F00040C4F27F
:10390000DC31FCF71EFEB8B904F1280340F2541074
:103910000ECBC2F200000165826503660020B0BDD7
:10392000E06B0021FCF70DFE18B90020CCF2FA3054
:103930002064206CB0BD00BF40F25410C2F2000001
:103940004FF07C510165002181654CF6CD41CBF6ED
:10395000CC610166E06BB0BD2DE9F04F81B040F65F
:10396000004541F20407C4F201054DF6836A804622
:10397000CEF200070024A5F58066C4F21B3A4FF092
:10398000000B048005E000BF01340C2C0BF1010B8F
:1039900048D00BF0010230464FF400415FFA8BF93A
:1039A000FDF756FEC9F3400228460821FDF750FEF8
:1039B000C9F3800228464FF48071FDF749FE4FEAB3
:1039C000D90228464FF40071FDF742FE40F2500143
:1039D000C2F2000138680968A1FB0A12910C00BF0D
:1039E0003A68121A8A420BD23A68121A8A4207D2ED
:1039F0003A68121A8A4203D23A68121A8A42EFD3FC
:103A000030464FF48051FDF71DFE0128BCD1C4F1B2
:103A10000B00B8F80010012202FA00F00844A8F8E0
:103A20000000B1E701B0BDE8F08F000080B582B0C2
:103A300041F21400C4F202000168002241F00101C9
:103A400001600068002100F00100019001980C2045
:103A5000FDF78AFE0C20FDF777FE0D2000210022E5
:103A6000FDF782FE0D2002B0BDE88040FDF76CBE80
:103A70002DE9F04784B041F21800C4F20200016859
:103A800040F6000841F0100101600168C4F201082D
:103A900001F0100100910099016808F5006741F0FC
:103AA000200101600168002201F0200100910099CD
:103AB00001684FF4005641F00401016001680024E0
:103AC00001F0040100910099016841F008010160D2
:103AD00000684FF4005100F008000090009838464C
:103AE000FDF7B6FD404648F210410022FDF7B0FD5B
:103AF00008F58065284648F208310022FDF7A8FD48
:103B0000009611206E46CDE901044FF002093846B7
:103B10003146CDF80C90FDF78BFC1020009003206F
:103B20000127039040463146CDE90174FDF780FC42
:103B30004FF4004A28463146CDE900A7CDE90249B5
:103B4000FDF776FC4FF48060CDE900074046314632
:103B5000CDE90249FDF76CFC4FF48050CDE900043B
:103B6000404631460294FDF763FC40463146CDE9BC
:103B700000A7CDE90247FDF75BFC4FF44270CDE9A9
:103B8000000728463146CDE90247FDF751FC04B055
:103B9000BDE8F08780B542F29C3043F20001C2F2EA
:103BA0000000C4F201014FF48272002380E80E008D
:103BB00000F114014FF4007C4FF0100E81E8085022
:103BC0000A21C0E90333C0E90833C0E90A31FEF72E
:103BD0006FF9002808BF80BDBDE88040FDF7EEB951
:103BE00070B59CB042F6004542F2F430C4F20105D3
:103BF0000021C2F2000041F61F421691CDE91411D6
:103C00001191CDE90F11CDE90D11CDE90B11CDE9E0
:103C10000911CDE90711CDE90511CDE90311CDE970
:103C20000111C0E90051C0E90212C0E9041181612B
:103C3000FEF7ACFB002818BFFDF7C0F94FF4805029
:103C4000139042F2F430C2F2000013A9FEF788FC90
:103C5000002818BFFDF7B2F942F2F430C2F20000BA
:103C6000FFF776F8002818BFFDF7A8F942F2F43004
:103C70000024C2F2000010A9CDE91044FEF748FB71
:103C8000002818BFFDF79AF96020CDE9090442F237
:103C9000F430C2F2000009A90022CDE90B44CDE9BD
:103CA0000D440F94FEF752FF002818BFFDF786F968
:103CB00042F2F430C2F2000009A90422FEF746FFE6
:103CC000002818BFFDF77AF942F2F430C2F2000082
:103CD00009A90C22FEF73AFF002818BFFDF76EF97C
:103CE00042F2F4344FF40050C2F200040026069071
:103CF00001A920460596CDE90366CDE9016608963F
:103D0000FEF7E0FA002818BFFDF758F920681A9668
:103D1000A84201D01CB070BD41F21800C4F20200EC
:103D2000016841F004010160006818A900F0040076
:103D3000179017984FF430601890022019901B903C
:103D4000A5F51050FDF774FB1CB070BD80B586B0B2
:103D500042F23C400021C2F200004FF08042472373
:103D600040F2E73C0591CDE90311CDE90011C0E92E
:103D70000023C0E9021C01618161FEF707FB0028F6
:103D800018BFFDF71BF94FF48050029042F23C40FF
:103D9000C2F2000002A9FEF7E3FB002818BFFDF7FE
:103DA0000DF942F23C40C2F200006946FEF7B0FA5B
:103DB000002818BFFDF702F906B080BD80B58CB0B1
:103DC00042F2844040F200420021C2F20000C4F2FC
:103DD0000002C0E9002103224FF6FF73CDE9032161
:103DE0000122CDE90011C0E9021301618161CDE931
:103DF0000521CDE90711CDE909210B9103A9FEF7B2
:103E00007DFC002818BFFDF7D9F842F28440C2F2C9
:103E100000006946FEF77CFA002818BFFDF7CEF8CF
:103E20000CB080BD80B58CB042F2CC4040F60002B0
:103E30000021C2F20000C4F20002C0E90021032206
:103E40004FF6FF73CDE903210122CDE90011C0E94E
:103E5000021301618161CDE90521CDE90711CDE9A9
:103E600009210B9103A9FEF749FC002818BFFDF7B3
:103E7000A5F842F2CC40C2F200006946FEF748FACB
:103E8000002818BFFDF79AF80CB080BD80B542F24B
:103E9000145044F60001C2F20000C4F200010023F5
:103EA0004FF00C0C4FF4165280E80E00C0E90333BB
:103EB000C0E905C3C361FFF77FFB002808BF80BDD1
:103EC000BDE88040FDF77AB8FEE70000FEE700009D
:103ED000B0B540F2E805C2F20005002140F204024C
:103EE0002971C2F20002517240F25411D5E90A233D
:103EF000C2F200010A658B654EF20001044620F013
:103F00000040C4F2B841FCF71CFBF8B9287803283C
:103F100004D102212046E970B0BD00BF28780428F2
:103F200004D102212046E970B0BD00BF28780528E1
:103F300004D102212046E970B0BD00BF28780628D0
:103F400004D102212046E970B0BD00BF0021204607
:103F5000E970B0BD704700007047000042F29C302D
:103F6000C2F20000FDF720BF406A0021C187C18670
:103F7000FDF718BF406A01684A6822F003024A60F0
:103F8000416D41F010014165012180F85110FDF7AC
:103F900009BF0000406AFEF75BB80000406AFEF708
:103FA00063B90000406AFEF771B90000B0B582B095
:103FB000446A0546FDF752FB29680968890645D41D
:103FC00084462068A168426822F02002426049B914
:103FD0006268B2F5827F05D1416821F0030141603A
:103FE00018E000BF426822F0010242606268B2F548
:103FF000827F0FD1B1F5004F02D0B1F5806F09D1AA
:104000000268B1F5806F22F04002026002D12046C2
:10401000012101E02046802100226423CDF800C068
:1040200000F0A6F828B1606D40F020006065202007
:1040300060650020E087012084F85100606D28B1A0
:10404000204602B0BDE8B040FDF7ACBE204602B04D
:10405000BDE8B040FDF7FABFB0B582B0446A05468E
:10406000FDF7FCFA29680968890639D405462068F5
:1040700001224168642321F020014160416821F060
:104080000201416020460221009500F071F838B924
:104090002046802100226423009500F069F838B1A1
:1040A000606D40F020006065606D40F0200060654C
:1040B000A06838B9002001902068C168019180682B
:1040C000019001980020E086012084F85100606D85
:1040D00030B1204602B0BDE8B040FDF763BE00BF7E
:1040E000204602B0BDE8B040FEF7AEB8B0B582B031
:1040F000446A0546FDF7B2FA29680968890631D491
:104100000546206801224168642321F020014160B6
:1041100020460221009500F02BF838B92046802176
:1041200000226423009500F023F838B1606D40F060
:1041300020006065606D40F0200060652068416887
:1041400021F0030141600020E086E087012084F82F
:104150005100606D30B1204602B0BDE8B040FDF7BF
:1041600021BE00BF204602B0BDE8B040FEF77EB8D9
:104170002DE9F04381B0089C984615460E468146CD
:10418000FDF76CFA201A00EB0804FDF767FA40F21D
:104190005001C2F200010968C1F3CB3161430091C3
:1041A000D9F800108A683240921BB2FA82F25209A2
:1041B000AA423DD0074618F1010031D0FDF74EFA72
:1041C000C01BA04238D2009800990028A1F101013B
:1041D0000091D9F80010896808BF044601EA06007A
:1041E000801BB0FA80F04009A842E7D120E000BF70
:1041F00088683040801BB0FA80F04009A84217D090
:1042000088683040801BB0FA80F04009A8420FD087
:1042100088683040801BB0FA80F04009A84207D07F
:1042200088683040801BB0FA80F04009A842DFD196
:10423000002001B0BDE8F083D9E900014268B1F582
:10424000827F22F0E00242600BD1D9F80810B1F56C
:10425000004F02D0B1F5806F03D1016821F0400119
:104260000160D9F82810B1F5005F07D1016821F489
:1042700000510160016841F400510160012089F89A
:104280005100002089F85000032001B0BDE8F08300
:104290007047000070B540F2E80540F20401C2F238
:1042A0000005C2F20001A86C91F92010B0FBF1F2F8
:1042B00002FB1100002818BF70BDD5E9130140F2C0
:1042C000C414E8802981B5F90610C2F200044EF644
:1042D000E82620464FF0FF32CFF6FF76FCF7B0FB22
:1042E000B5F9081004F134000122FCF7A9FB206B9A
:1042F000646EFCF7B2F9A8812046FCF7AEF9E881BC
:10430000B5F90C1041F2185081420DDDA881B5F9C4
:104310000E1041F21850814212DCB5F90E00B04285
:104320003046B8BFE88170BDB5F90C00B0423046E8
:10433000B8BFA881B5F90E1041F218508142ECDDEA
:10434000E88170BDFDF790B97047000042F23C4033
:10435000C2F20000FEF750BB42F28440C2F20000FD
:10436000FEF74ABB42F2CC40C2F20000FEF744BB6B
:104370002DE9F04140F2E80740F20406C2F20007DE
:10438000C2F20006B86C96F92010B0FBF1F202FB05
:104390001100002818BFBDE8F081FCF795FA3B6AD0
:1043A000397842F29C220446C2F200021846FCF719
:1043B0000BFEF863F87840F254150328C2F20005AA
:1043C00018D14CF6CD40C3F6CC5028654CF28F2066
:1043D000C3F6F54043F60041A865C4F21C612046CF
:1043E000FCF7CBF8002818BFBC6B786A0130786204
:1043F0001FE000BF97F90200092802DCF8780428C2
:1044000046D1002070723871F87807F1280204282C
:104410001CBF0420F87007CA7B6C2865581CA9656E
:104420002A667864786C0024CCF2FA344C2838BFC1
:104430000024786B642817D2786AB0F5967F1CD276
:10444000786C872803D30020F8707864B870204611
:10445000FCF703F97881B7F90A1005F13C00002256
:10446000BDE8F041FCF7ECBA0320F8700020387189
:104470007863786AB0F5967FE2D30020F870396BE4
:104480002966B8637862786C8728E0D3DBE700BFE1
:104490003878072819D33878092816D824F000402E
:1044A000FCF7F4F8804638780E46FCF7C9F8024667
:1044B0000B4640463146FBF7B6FF41F60043C4F2D7
:1044C00097030022FCF782F810B9F878012817D179
:1044D000F878022820D197F9040005283CDB012058
:1044E000F8704FF07A5028654DF20A70C3F6A34079
:1044F000A86549F69A10CBF619702866BC6B98E748
:1045000043F60041C4F21C612046FCF736F8C8B1FE
:10451000FFF7C2F904468CE7F878012836D14FF04E
:104520007A5028654DF20A70C3F6A340A86549F693
:104530009A10CBF619702866786B01307863BC6BE3
:1045400077E700BFF87805282AD107F1280207CAC3
:10455000A96528652A666CE7387998B92046002154
:10456000FBF7FDFF064620460021FBF7DCFF002895
:104570001CBF0020CCF2FA30002E1CBF0020C4F279
:10458000FA30B86338790130387152E7F87800288A
:104590007FF44FAFD7E90A012865A96549E700BF55
:1045A00038780C2812D124F00040FCF76FF84AF656
:1045B00048724DF2F273C9F6BC22C3F67A63FCF777
:1045C00005F818B9FCF7B4FC33E700BF2046FFF745
:1045D0007FFC2EE7406A0021C185C184FEF738BD0B
:1045E00081B090F84210222920D18368B3F5805F12
:1045F00008D10169002965D000F128010A68036823
:104600005B680AE0014651F8282F13B90369002BB3
:10461000F5D003685B6803F07F0313700A6801320A
:104620000A60C18D01390A04C18501D001B070470B
:104630000168CA6822F02002CA60CA6822F4807247
:10464000CA604A6922F001024A61202280F84220B1
:1046500000224263036B012B3ED1026351E8031F2A
:10466000026821F0100142E803130168DBB151E850
:10467000031F026821F0100142E80313016893B19F
:1046800051E8031F026821F0100142E8031301689A
:104690004BB151E8031F026821F0100142E80313F7
:1046A0000168002BDAD10A68D20606D500220092F2
:1046B0000A680092496800910099818D01B0FEF767
:1046C000C5BC00BF0168826A49686FF35F2122F8A8
:1046D000021B8262A5E700BF01B0FFF723B800000C
:1046E00042F21450C2F20000FEF7B4BC2DE9F047CC
:1046F00040F2040AC2F2000ADAF838904846FBF7A2
:10470000C5FF0023C4F214030022FBF7E5FD4AF6BF
:1047100048724DF2F27321F00041C9F6BC22C3F693
:104720007A63FBF738FF002818BFBDE8F08740F236
:10473000E801C2F20001D1E91308FBF762FFDAF8E1
:104740000C1007460846FBF7A1FF4DF64A0242F25D
:10475000FB13C4F61252C4F20903FBF764FEFBF725
:10476000A8FFBAF9141006460846FBF74AFF0546AB
:1047700038462946FBF772FDDAF81C7001463846C8
:10478000FBF73AFD3146FBF737FD04464046FBF7A1
:1047900038FF2946FBF762FD01463846FBF72CFD42
:1047A0003146FBF729FD01462046FBF7CDFC4FF0D3
:1047B0007C51FBF721FD01464846FBF7C5FCCAF8D2
:1047C0003800BDE8F0870000FEE700002DE9F04367
:1047D0008BB00D46014601A8144600F091FE18B1B9
:1047E0000BB0BDE8F08300BFDDE90971DDE90139F7
:1047F0000DF10C0E9EE84440DDE906C8C5E90871DC
:104800000899C5E9003905F1080383E84440C5E982
:1048100005C8E961DDE905ECDDE90137DDE903659E
:10482000DDE90789DDE90912C4E90037C4E90812A6
:10483000C4E90265C4E904ECC4E906890BB0BDE82B
:10484000F083000010B5D8B10446806BC0B1E06BB6
:10485000B0B1206CA0B1242020700320C2F200006F
:10486000A0646069617A0028B1FA81F04FEA5010C3
:10487000E07209D0204600F027FF78B140B210BDA9
:10488000FF2040B210BD00BF46F6EC70C0F600003D
:104890006061204600F018FF0028EFD148F6EC7068
:1048A00049F21F01C0F60000C0F60001C4E908018A
:1048B00041F2081020830720A07640F25400C2F293
:1048C00000000821E065204684F86010BDE8104033
:1048D00000F0B8BB2DE9F041002818BF002903D132
:1048E0004FF0FF30BDE8F08104464EF6FC50CEF2AA
:1048F0000000026841F2040742F08072CEF2000725
:10490000026057F8040C40F2800540F0010047F8BF
:10491000040C0020C2F200053860696046F255219F
:10492000C0F6000146F2653244F66D2304F1380CFE
:1049300040F60008C0F60002C0F600038CE80E0046
:104940004FF4006140F69826C4F20108E181C2F2FA
:10495000000680216072606060613170287040469E
:1049600010210022FCF774FE686840F29822C2F21F
:10497000000231460223FDF76DFB40B9287830B9BB
:10498000287820B9287810B928780028F6D0404631
:1049900010210122FCF75CFE40F25001C2F200013E
:1049A000386809684DF68362C4F21B32A1FB02121B
:1049B000910C4FF47A7251433A68121A8A420BD220
:1049C0003A68121A8A4207D23A68121A8A4203D205
:1049D0003A68121A8A42EFD32046BDE8F041FFF749
:1049E00031BF0000B0B58EB0044600208DF8040041
:1049F00001A80121224600F0CBFB08B10EB0B0BDEA
:104A000040F20C20C0F20120CDF8060001A80121DF
:104A10002246012501F092F80028EFD101A80121DA
:104A200022468DF8045000F0B3FB0028E6D14FF485
:104A30000370ADF806004FF48040ADF80A00012085
:104A40008DF8080001A80121224601F077F800281E
:104A5000D4D14FF48070ADF802000DF102000221B4
:104A6000224600F0A3FE0EB0B0BD000041F20401EA
:104A700040F25003CEF20001C2F200030A68D3F8FC
:104A800000C04DF68363C4F21B33ACFB033C4FEA1A
:104A90009C43584309E000BF0B689B1A834228BF20
:104AA00070470B689B1A834207D20B689B1A83429C
:104AB00003D20B689B1A8342EED370472DE9F04F67
:104AC000A5B0144602468DF8130000294FF0FF00F0
:104AD00018BF002C04D140B225B0BDE8F08F00BF54
:104AE000207E904214D9A06BC0B1E76BB7B1206CA7
:104AF000A0B194F847000391012815D163680DF126
:104B000013012F200122B847A0724FF4E17013E087
:104B1000F62040B225B0BDE8F08F00BFFF2040B2C4
:104B200025B0BDE8F08F00BF63680DF113012F20A1
:104B30000122B847A07202206168226C9047A07AD7
:104B400020B1FE2040B225B0BDE8F08FE6890F2EDF
:104B500000F22481F0071CBF013EE681039A302356
:104B6000501C00274FF010080DF1140C4FF0000EF0
:104B7000019000BF5FFA88FA1FFA86FB5FFA8EF990
:104B8000D34502EB09012FD9A66B002E58D0E06B5C
:104B9000002855D0206C002852D0607A029100285D
:104BA0001846E17A9B4608BF40F08000636801EB3D
:104BB0000A02C0B261467546B047A07294F8470039
:104BC0006168226C01284FF0020008BF4FF4E170C9
:104BD0009047A07A002849D0039AFE205B460DF149
:104BE000140CAE46C0B376E7A56B6DB3E06B58B35B
:104BF000206C48B3607A029100281846E17A984602
:104C000008BF40F08000636801EB0B02C0B2614650
:104C1000F246A847A07294F847006168226C012808
:104C20004FF0020008BF4FF4E1709047A07A38B30C
:104C3000FE20039A43460DF1140CD64605E000BF52
:104C4000FF2048B147E700BFFF2094F80E80C6441C
:104C5000434400287FF43FAF4744F9B210293FF4A2
:104C60003AAFE689C7F1100884E700BFAAF1010056
:104C7000032811D200200DF1140CAE462DE000BF28
:104C8000300449D0ABF1010003280DF1140CD646D5
:104C900044D2002060E000BF01980AF0FC0100EB64
:104CA000090200200DF1140CAE46E37A1618634495
:104CB0001B5C06F8013CE37A634403445B781354BD
:104CC000E37A634403449B787370E37A6344034458
:104CD000DB7804308142B370E7D11AF0030115D0BC
:104CE000E27A029D02441CF8022001292A540DD0C8
:104CF000E27A431C1A441CF802200229EA5405D027
:104D0000E17A023001441CF801102954039A002072
:104D10005B460028A0D0DEE600208AE701982BF051
:104D2000030100EB09020020E37A161863441B5CC0
:104D300006F8013CE37A634403445B781354E37A56
:104D4000634403449B787370E37A63440344DB78E1
:104D500004308142B370E7D11BF0030107D0E27A3F
:104D6000029D02441CF8022001292A5404D1039A0E
:104D70000020434669E700BFE27A431C1A441CF84E
:104D800002200229EA54039A434605D0E17A023010
:104D900001441CF801102954002056E703993020E3
:104DA0001022234600F076F940B225B0BDE8F08F1E
:104DB0002DE9F04FA7B00AB38046906B9146B8B189
:104DC000D9F83C00A0B1B8F1000F4FF0FF0016D0A9
:104DD0008A46D9F8401091B1BAF1000F00F026814F
:104DE00099F847404FF0000B0020029414E000BFF8
:104DF000FF2040B227B0BDE8F08F00BFFF2040B2D7
:104E000027B0BDE8F08F00BF0120494600F038FE12
:104E10000BF1010BD345F2D00BEB8B0518F82510E5
:104E2000042905D3012C03D10020494600F028FEB7
:104E30000106EDD108EB8500017809293CD029292C
:104E400040F0FA80051D99F8480000218006CDE960
:104E500005110491039163D499F81A20002A5DD0BA
:104E6000D9F824000195C2F1000C571E0021092534
:104E7000431913F8093C292B00F0B9808F424AD01E
:104E800001EB41060644F478292C00F0AB800CEBD2
:104E90000104A31C3FD0B379292B00F0A580E31CAB
:104EA00039D0435D292B00F0A18004318A4205F1FD
:104EB0000C05DDD12FE000BF99F81A200021CDE9C3
:104EC0000911089107914AB300F1040ED9F82400A2
:104ED000C2F1000C571E00210925431913F8093CA3
:104EE000092B4FD08F4216D001EB41060644F478CF
:104EF000092C49D00CEB0104A31C0CD0B379092B6D
:104F000046D0E31C07D0435D092B45D004318A42CB
:104F100005F10C05E1D1029CF8207FE0F8207DE04E
:104F2000D9F8387057B3D9F83C0038B3D9F84000F5
:104F300020B399F80B0099F80910D9F8043007ACA0
:104F4000421C00294FF01E00214608BF9E20B84792
:104F500089F80A0099F84700D9F80410D9F84020D8
:104F600001284FF0020008BF4FF4E170904799F814
:104F70000A0068B3029CFE2050E000BF029CFF20A4
:104F80004CE000BF764609E07646013106E000BFFE
:104F90007646023102E000BF7646033101EB410163
:104FA00001444878029C8D7807A94A46FFF786FDA0
:104FB000A0BB07A8405D00F001013170C0F34001C3
:104FC0007170C0F38001C0F3C200B170F07024E0D2
:104FD00099F80B00205C410648BF8038029C28806D
:104FE0001BE000BF013102E0023100E0033101EBC0
:104FF000410101444878029C8D7803A94A46FFF795
:105000005DFD58B903A8405D410652BF00F07F0026
:105010004FF68071084301990880002001067FF453
:10502000EEAE012C3FF4F0AE0020F1E6002040B2DD
:1050300027B0BDE8F08F00BFF82040B227B0BDE830
:10504000F08F000010B586B00446B0F84800800725
:1050500004D4F82040B206B010BD00BFA06BA8B1C8
:10506000E06B98B1206C88B129208DF8040001A86C
:1050700001212246FFF79CFE0028EBD1BDF8080075
:10508000A4F84400002040B206B010BDFF2040B29A
:1050900006B010BD2DE9F041A0B05BB39C6B1D467E
:1050A00044B38846E96B29B3B8F1000F4FF0FF0114
:1050B0001BD017462A6CC2B1697A6E46002908BF18
:1050C00040F08000E97A6B68CA193146A04795F82C
:1050D000472069682B6CA8720220012A08BF4FF490
:1050E000E1709847A87A58B1FE2148B220B0BDE8D7
:1050F000F08100BFFF2148B220B0BDE8F08100BFC1
:10510000A7B3781E032807F0030001D200211DE099
:1051100027F0030208F10103002100BFEF7A5C18B9
:1051200037447F5C04F8017CEF7A37440F447F7882
:105130005F54EF7A37440F44BF786770EF7A374493
:105140000F44FF7804318A42A770E7D170B1EA7A40
:1051500001280A44B25C08F8012007D0EA7A4B1C07
:105160001A44B25C022808F8032005D1002148B295
:1051700020B0BDE8F08100BFE87A02310844305C1D
:1051800008F80100002148B220B0BDE8F08100001D
:105190002DE9F04FA3B0DAB18046906B1446002899
:1051A00000F08C81E06B002800F08881B8F1000FDE
:1051B0004FF0FF000DD0226C5AB194F847500029EF
:1051C00000F082810DF10C0B4FF0000A02913AE0E1
:1051D000FF2040B223B0BDE8F08F00BF01310DF1D8
:1051E0000C0B4E4601EB4101014448788D7859463D
:1051F0002246FFF763FC0028EBD1681CC0B21BF805
:1052000005101BF80000AA1C60F30A21E81C71803D
:10521000D1B2C0B21BF801101BF800002A1D60F3C8
:105220000A21681DD2B2C0B21BF802201BF8000090
:10523000019D60F30A22B180F28002980AF1010A0E
:10524000824500F0418134220AFB02F018F8001078
:105250000AFB0286032901D8022908D1012D06D1B3
:105260000020214600F00CFC0028B2D13178092939
:105270004FF0F800ADD8B146DFE801F008428206F1
:105280000606060606E800BFA3E700BFA76B002FCF
:1052900000F01481E06B002800F01081206C0028E1
:1052A00000F00C81E07A617A6368821C00294FF07B
:1052B0004000594608BFC020B847A07294F8470084
:1052C0006168226C01284FF0020008BF4FF4E170C2
:1052D0009047A07A002840F00D81E07AB11C0BEBDA
:1052E00000021BF800005278C3093371C0F30213A7
:1052F00000F00F00087002F003004B70C8709CE7CC
:10530000A76B002F00F0DA80E06B002800F0D68059
:10531000206C002800F0D280E07A617A6368821CF9
:1053200000294FF04200594608BFC220B847A0727A
:1053300094F847006168226C01284FF0020008BF12
:105340004FF4E1709047A07A002840F0D380E07AD3
:10535000B11C0BEB00021BF800005278C30933713B
:10536000C0F380134B71C0F3011300F00F000870FD
:10537000C2F3C000C87002F007004B70B0715CE768
:10538000A76B002F00F09A80E06B002800F0968059
:10539000206C002800F09280E07A617A6368421CF9
:1053A00000294FF06B00594608BFEB20B847A072A8
:1053B00094F847006168226C01284FF0020008BF92
:1053C0004FF4E1709047A07A002840F09380E07A93
:1053D000B71C1BF800002146C0F340103870384657
:1053E00001F06AF900287FF4F4AE2E46A56B002D7B
:1053F00064D0E06B002861D0206C00285ED0E07A99
:10540000617A63680DF10C0B421C00294FF04400D7
:10541000594608BFC420A847A07294F847006168A5
:10542000226C01284FF0020008BF4FF4E170904752
:10543000A07A00285ED1E07A35461BF80000010909
:1054400000F00F0089F808107871F6E6627E0020FF
:10545000002ACDE90500049003903FD0206A019511
:10546000C2F1000CA2F1010E00210925431913F825
:10547000093C092B3FF4B6AE8E452FD001EB41031A
:10548000C618F378092B3FF4A9AE0CEB01039F1C5F
:1054900024D0B679092E0DD003331FD0435D092BDC
:1054A0000AD004318A4205F10C050DF10C0B4E4671
:1054B000DCD113E0023192E6033190E6FF2040B2E6
:1054C00023B0BDE8F08F00BF012D0DD10120214692
:1054D00000F0D6FA40B223B0BDE8F08FF82040B219
:1054E00023B0BDE8F08F00BF002040B223B0BDE87C
:1054F000F08F00BFFE2040B223B0BDE8F08F000067
:10550000F0B5A7B030B30D4621B3AE6B16B3044669
:10551000E86BF8B1286CE8B1E87A697A6B6807AF94
:1055200000F1180203200029394608BF8320B04744
:1055300095F8472069682B6CA8720220012A08BFE1
:105540004FF4E1709847A87A40B1FE2040B227B0EE
:10555000F0BD00BFFF2040B227B0F0BDE87A01AE39
:10556000391830461822FAF7DDFD304621462A4622
:1055700000F004F840B227B0F0BD00002DE9F0477C
:1055800083B0002A00F09A80936B002B00F0968085
:10559000D36B002B00F0928000294FF0FF0300F046
:1055A0008980166C002E00F0858043786F460B765C
:1055B00083784B76C3788B760379CB7643790B77F8
:1055C00083794B77C3798B77037ACB77B0F809303F
:1055D00092F828800B80B0F80B60ADF800304E8058
:1055E000B0F80D50ADF80260ADF8045092F82B9071
:1055F00092F829E037F8185092F82AC0B9F1000F54
:1056000018BF6D4292F82CA037F81E600D80BAF1D9
:10561000000F18BF76424E8092F82D6037F81C704C
:10562000002E18BF7F428F80B0F90F70B2F944206E
:105630008F81B0F81130CB81B0F913406243D51798
:1056400002EBD55242F34F22BA1A47F6FF75AA422F
:10565000B8BF154648F20002CFF6FF7215F5004FAD
:10566000C8BF2A46ADF80620ADF80830ADF80A40AC
:105670000DF1060232F81830B9F1000F18BF5B4285
:105680008B8132F81E30BAF1000F18BF5B4232F83E
:105690001C20CB81002E18BF52420A82837DC77D19
:1056A000427D1B0243EA07431A440A620078002342
:1056B00081F8240058B203B0BDE8F087FF2358B248
:1056C00003B0BDE8F087000070B5A0B000284AD054
:1056D000856B0446002D46D0E06B002843D0206C3B
:1056E000002840D0607A012184F8471000B3E06BB5
:1056F000C8B3206CB8B3607AE17AB0FA80F04009A0
:1057000063686E464A1CC0013146A84794F847209A
:105710006168236CA0720220012A08BF4FF4E17077
:105720009847A07A20B3FE2040B220B070BD00BFE1
:10573000E07A6368421C69468020A84794F84720B5
:105740006168236CA0720220012A08BF4FF4E17047
:105750009847A07A20B1FE2040B220B070BD00BFB3
:10576000A56B002DC3D1FF2040B220B070BD00BF9B
:10577000E07A2178305C884212D110202073012019
:10578000E07646F6CC70C0F6000001688088A16221
:10579000A085204600F0F2FC40B220B070BD00BFF2
:1057A0002070FD2040B220B070BD00002DE9F04F08
:1057B000A1B0002A00F0FA80D2F838C01446BCF13B
:1057C000000F00F05181E26B002A00F04D810028AB
:1057D0004FF0FF0500F0EB80226C002A00F0E7801C
:1057E000002900F0EF80C1F100094FF0000A4FF0EE
:1057F000000B0023002506E0043319EB03024FF0F1
:10580000F80500F0D480C25C202A23D8DFE812F02B
:1058100086008C009200220022002200220022003A
:105820002200220022002200220022002200220068
:105830002200220022002200220022002200220058
:105840002200220022002200220022002200220048
:10585000980000BF09EB03056A1C00F0AD80C21878
:105860005678202E22D8DFE816F0710073007500FC
:105870002100210021002100210021002100210020
:105880002100210021002100210021002100210010
:105890002100210021002100210021002100210000
:1058A000210021002100210021007700AF1C00F021
:1058B00083809678202E13D8DFE806F050565812D1
:1058C00012121212121212121212121212121212B8
:1058D0001212121212121212121212125A0000BFD7
:1058E000EF1C00F06980D278202A3FF685AFDFE810
:1058F00002F0134147111111111111111111111160
:105900001111111111111111111111111111111187
:1059100011114D0070E700BF033320E04FF0000E7F
:105920004FF0010838E000BF4FF0000E4FF00208C2
:1059300032E000BF4FF0000E4FF004082CE000BF33
:105940004FF0010E4FF0000826E000BF013306E0E3
:10595000013310E0013314E0013318E002334FF05B
:10596000000E4FF0010816E0023304E0023308E0B5
:1059700002330CE003334FF0000E4FF002080AE050
:1059800003334FF0000E4FF0040804E003334FF0F0
:10599000010E4FF00008F82501334AEA080A8B424D
:1059A0004BEA0E0B7FF42FAF0DB90FE0FF2568B265
:1059B00021B0BDE8F08F00BFF82568B221B0BDE886
:1059C000F08F00BF4FF0000A4FF0000BE07A617AD1
:1059D00063680DF10408421C7D200029414608BF80
:1059E000FD20E04794F847206168236CA0720220F4
:1059F000012A08BF4FF4E1709847A07A20B1FE2534
:105A000068B221B0BDE8F08F0AF007000BF0010189
:105A100008432FD0E07A9AFAAAF118F80000490F4B
:105A2000A26B6BF3C30108438DF80300E2B1E76B8F
:105A3000D7B1206CC0B1636894F847500DF10301F1
:105A40007D200122B8476168226CA0720220012DDE
:105A500008BF4FF4E1709047A57A002D18BFFE25CE
:105A600068B221B0BDE8F08FFF2568B221B0BDE873
:105A7000F08F00BF002568B221B0BDE8F08F0000B4
:105A8000F0B5A1B021B38E6B0C460EB30546E06BAA
:105A9000F0B1206CE0B1E07A617A636801AF421C3A
:105AA0007C200029394608BFFC20B04794F84720E5
:105AB0006168236CA0720220012A08BF4FF4E170D4
:105AC0009847A07A40B1FE2040B221B0F0BD00BF9F
:105AD000FF2040B221B0F0BDE07AA26B385C05F047
